{
  "_format": "hh-sol-artifact-1",
  "contractName": "Mastermind",
  "sourceName": "contracts/Mastermind.sol",
  "abi": [
    {
      "inputs": [],
      "name": "FailedStake",
      "type": "error"
    },
    {
      "anonymous": false,
      "inputs": [
        {
          "indexed": true,
          "internalType": "bytes32",
          "name": "_game_id",
          "type": "bytes32"
        },
        {
          "indexed": false,
          "internalType": "uint256",
          "name": "_turn_num",
          "type": "uint256"
        },
        {
          "indexed": false,
          "internalType": "bytes2",
          "name": "_feedback",
          "type": "bytes2"
        }
      ],
      "name": "FeedbackSent",
      "type": "event"
    },
    {
      "anonymous": false,
      "inputs": [
        {
          "indexed": true,
          "internalType": "bytes32",
          "name": "_game_id",
          "type": "bytes32"
        },
        {
          "indexed": true,
          "internalType": "address",
          "name": "_game_creator",
          "type": "address"
        }
      ],
      "name": "GameCreated",
      "type": "event"
    },
    {
      "anonymous": false,
      "inputs": [
        {
          "indexed": true,
          "internalType": "bytes32",
          "name": "_game_id",
          "type": "bytes32"
        },
        {
          "indexed": false,
          "internalType": "bool",
          "name": "_creator_is_first_breaker",
          "type": "bool"
        }
      ],
      "name": "GameStart",
      "type": "event"
    },
    {
      "anonymous": false,
      "inputs": [
        {
          "indexed": true,
          "internalType": "bytes32",
          "name": "_game_id",
          "type": "bytes32"
        },
        {
          "indexed": false,
          "internalType": "address",
          "name": "_winner",
          "type": "address"
        }
      ],
      "name": "GameWinner",
      "type": "event"
    },
    {
      "anonymous": false,
      "inputs": [
        {
          "indexed": true,
          "internalType": "bytes32",
          "name": "_game_id",
          "type": "bytes32"
        },
        {
          "indexed": false,
          "internalType": "uint256",
          "name": "_turn_num",
          "type": "uint256"
        },
        {
          "indexed": false,
          "internalType": "bytes16",
          "name": "_guess",
          "type": "bytes16"
        }
      ],
      "name": "GuessSent",
      "type": "event"
    },
    {
      "anonymous": false,
      "inputs": [
        {
          "indexed": true,
          "internalType": "bytes32",
          "name": "_game_id",
          "type": "bytes32"
        },
        {
          "indexed": false,
          "internalType": "uint8",
          "name": "_code_len",
          "type": "uint8"
        },
        {
          "indexed": false,
          "internalType": "uint8",
          "name": "_code_symbols_amt",
          "type": "uint8"
        },
        {
          "indexed": false,
          "internalType": "uint256",
          "name": "_bonus",
          "type": "uint256"
        }
      ],
      "name": "PlayersReady",
      "type": "event"
    },
    {
      "anonymous": false,
      "inputs": [
        {
          "indexed": true,
          "internalType": "bytes32",
          "name": "_game_id",
          "type": "bytes32"
        },
        {
          "indexed": false,
          "internalType": "address",
          "name": "_claimer",
          "type": "address"
        }
      ],
      "name": "RewardClaimed",
      "type": "event"
    },
    {
      "anonymous": false,
      "inputs": [
        {
          "indexed": true,
          "internalType": "bytes32",
          "name": "_game_id",
          "type": "bytes32"
        },
        {
          "indexed": false,
          "internalType": "uint256",
          "name": "_turn_num",
          "type": "uint256"
        }
      ],
      "name": "SecretSet",
      "type": "event"
    },
    {
      "anonymous": false,
      "inputs": [
        {
          "indexed": true,
          "internalType": "bytes32",
          "name": "_game_id",
          "type": "bytes32"
        },
        {
          "indexed": false,
          "internalType": "uint256",
          "name": "_opp_stake",
          "type": "uint256"
        }
      ],
      "name": "StakeFailed",
      "type": "event"
    },
    {
      "anonymous": false,
      "inputs": [
        {
          "indexed": true,
          "internalType": "bytes32",
          "name": "_game_id",
          "type": "bytes32"
        },
        {
          "indexed": false,
          "internalType": "uint256",
          "name": "_stake",
          "type": "uint256"
        }
      ],
      "name": "StakeSent",
      "type": "event"
    },
    {
      "anonymous": false,
      "inputs": [
        {
          "indexed": true,
          "internalType": "bytes32",
          "name": "_game_id",
          "type": "bytes32"
        },
        {
          "indexed": false,
          "internalType": "uint256",
          "name": "_stake",
          "type": "uint256"
        }
      ],
      "name": "StakeSuccessful",
      "type": "event"
    },
    {
      "anonymous": false,
      "inputs": [
        {
          "indexed": true,
          "internalType": "bytes32",
          "name": "_game_id",
          "type": "bytes32"
        },
        {
          "indexed": false,
          "internalType": "uint256",
          "name": "_turn_num",
          "type": "uint256"
        },
        {
          "indexed": false,
          "internalType": "bytes16",
          "name": "_code_sol",
          "type": "bytes16"
        }
      ],
      "name": "TurnOver",
      "type": "event"
    },
    {
      "anonymous": false,
      "inputs": [
        {
          "indexed": true,
          "internalType": "bytes32",
          "name": "_game_id",
          "type": "bytes32"
        },
        {
          "indexed": false,
          "internalType": "address",
          "name": "_sender",
          "type": "address"
        }
      ],
      "name": "disputeSent",
      "type": "event"
    },
    {
      "anonymous": false,
      "inputs": [
        {
          "indexed": true,
          "internalType": "bytes32",
          "name": "_game_id",
          "type": "bytes32"
        },
        {
          "indexed": false,
          "internalType": "address",
          "name": "_winner",
          "type": "address"
        }
      ],
      "name": "disputeWon",
      "type": "event"
    },
    {
      "inputs": [
        {
          "internalType": "bytes32",
          "name": "_game_id",
          "type": "bytes32"
        }
      ],
      "name": "accuseAFK",
      "outputs": [],
      "stateMutability": "nonpayable",
      "type": "function"
    },
    {
      "inputs": [
        {
          "internalType": "bytes32",
          "name": "_game_id",
          "type": "bytes32"
        }
      ],
      "name": "claimReward",
      "outputs": [],
      "stateMutability": "nonpayable",
      "type": "function"
    },
    {
      "inputs": [
        {
          "internalType": "address",
          "name": "_opponent",
          "type": "address"
        },
        {
          "internalType": "uint8",
          "name": "_code_len",
          "type": "uint8"
        },
        {
          "internalType": "uint8",
          "name": "_code_symbols_amt",
          "type": "uint8"
        },
        {
          "internalType": "uint256",
          "name": "_bonus",
          "type": "uint256"
        }
      ],
      "name": "createGame",
      "outputs": [
        {
          "internalType": "bytes32",
          "name": "",
          "type": "bytes32"
        }
      ],
      "stateMutability": "nonpayable",
      "type": "function"
    },
    {
      "inputs": [
        {
          "internalType": "bytes32",
          "name": "_game_id",
          "type": "bytes32"
        },
        {
          "internalType": "bytes16",
          "name": "_guess",
          "type": "bytes16"
        }
      ],
      "name": "dispute",
      "outputs": [],
      "stateMutability": "nonpayable",
      "type": "function"
    },
    {
      "inputs": [
        {
          "internalType": "bytes32",
          "name": "_game_id",
          "type": "bytes32"
        },
        {
          "internalType": "bytes2",
          "name": "_feedback",
          "type": "bytes2"
        }
      ],
      "name": "giveFeedback",
      "outputs": [],
      "stateMutability": "nonpayable",
      "type": "function"
    },
    {
      "inputs": [
        {
          "internalType": "bytes32",
          "name": "_game_id",
          "type": "bytes32"
        },
        {
          "internalType": "bytes16",
          "name": "_guess",
          "type": "bytes16"
        }
      ],
      "name": "guess",
      "outputs": [],
      "stateMutability": "nonpayable",
      "type": "function"
    },
    {
      "inputs": [
        {
          "internalType": "bytes32",
          "name": "_game_id",
          "type": "bytes32"
        }
      ],
      "name": "joinGame",
      "outputs": [],
      "stateMutability": "nonpayable",
      "type": "function"
    },
    {
      "inputs": [
        {
          "internalType": "bytes32",
          "name": "_game_id",
          "type": "bytes32"
        }
      ],
      "name": "proposeStake",
      "outputs": [],
      "stateMutability": "payable",
      "type": "function"
    },
    {
      "inputs": [
        {
          "internalType": "bytes32",
          "name": "_game_id",
          "type": "bytes32"
        },
        {
          "internalType": "bytes16",
          "name": "_code_sol",
          "type": "bytes16"
        },
        {
          "internalType": "bytes4",
          "name": "_salt",
          "type": "bytes4"
        }
      ],
      "name": "revealCode",
      "outputs": [],
      "stateMutability": "nonpayable",
      "type": "function"
    },
    {
      "inputs": [
        {
          "internalType": "bytes32",
          "name": "_game_id",
          "type": "bytes32"
        },
        {
          "internalType": "bytes32",
          "name": "_code_hash",
          "type": "bytes32"
        }
      ],
      "name": "setCodeHash",
      "outputs": [],
      "stateMutability": "nonpayable",
      "type": "function"
    },
    {
      "inputs": [],
      "name": "withdraw",
      "outputs": [
        {
          "internalType": "bool",
          "name": "",
          "type": "bool"
        }
      ],
      "stateMutability": "nonpayable",
      "type": "function"
    }
  ],
  "bytecode": "0x6080604052603c60035561016860045534801561001b57600080fd5b5061350f8061002b6000396000f3fe6080604052600436106100bc5760003560e01c8063a69bf4ac11610074578063c8134a661161004e578063c8134a66146101db578063eda4906b146101fb578063f54140231461020e57600080fd5b8063a69bf4ac1461017b578063bdd5cbbb1461019b578063bf474766146101bb57600080fd5b80633ccfd60b116100a55780633ccfd60b14610116578063860a48211461013b578063933616741461015b57600080fd5b80630f23a3c1146100c15780632b6de0e6146100f4575b600080fd5b3480156100cd57600080fd5b506100e16100dc366004613229565b61022e565b6040519081526020015b60405180910390f35b34801561010057600080fd5b5061011461010f366004613282565b6104db565b005b34801561012257600080fd5b5061012b6105c4565b60405190151581526020016100eb565b34801561014757600080fd5b506101146101563660046132bf565b610628565b34801561016757600080fd5b506101146101763660046132f9565b610699565b34801561018757600080fd5b506101146101963660046132f9565b610716565b3480156101a757600080fd5b506101146101b6366004613325565b610926565b3480156101c757600080fd5b506101146101d636600461338a565b610aa0565b3480156101e757600080fd5b506101146101f636600461338a565b610b45565b61011461020936600461338a565b610b75565b34801561021a57600080fd5b5061011461022936600461338a565b610d40565b6000336001600160a01b038616036102b35760405162461bcd60e51b815260206004820152602760248201527f546865206f70706f6e656e742063616e6e6f74206265207468652067616d652060448201527f63726561746f720000000000000000000000000000000000000000000000000060648201526084015b60405180910390fd5b60108460ff16111561032d5760405162461bcd60e51b815260206004820152602160248201527f54686520636f64652063616e6e6f74206265206c6f6e676572207468616e203160448201527f360000000000000000000000000000000000000000000000000000000000000060648201526084016102aa565b60288360ff1611156103a75760405162461bcd60e51b815260206004820152602860248201527f54686520636f64652063616e6e6f742068617665206d6f7265207468616e203460448201527f3020636f6c6f727300000000000000000000000000000000000000000000000060648201526084016102aa565b60006103b1611019565b600081815260208190526040902080546001600160a01b031916331781559091506001600160a01b0387166104285760078101805462ff000019169055600280546001810182556000919091527f405787fa12a823e0f2b7631cc41b3ba8828b3321ca811111fa75cd3aa3bb5ace0182905561045d565b600181810180546001600160a01b0319166001600160a01b038a1617905560078201805462ff00001916620100008302179055505b6006810184905560048101805461020a61ffff199182161790915560078201805460ff88811661010002919093169289169290921791909117905580546040516001600160a01b039091169083907fdb39b7323105b04a697f43db521ca7e936b02b98992c04ce3bbfa4a59d789ff690600090a35095945050505050565b60008281526020819052604090206104f281611064565b6104fb816110d7565b6105058183611151565b1561056657610513816113dc565b600d8101546040805160ff90921682526001600160f01b03198416602083015284917f6a0e1a90932de2bc5b8eb1107590b18e9500953482b15942dbe3cbf98f25c4f891015b60405180910390a2505050565b61057a8161057583600161163b565b6116e4565b827f9f5f23f7663b1c5ab928ddbf8cb33901fabecefd93a48c0f5eb040921259cd1b6105a783600161163b565b6040516001600160a01b039091168152602001610559565b505050565b33600090815260016020526040812054801561062057336000818152600160205260408082208290555183156108fc0291849190818181858888f193505050506106205733600090815260016020526040812091909155919050565b600191505090565b600082815260208190526040902061063f81611064565b610648816110d7565b610652818361177b565b600d81015460405160ff909116815283907f639b32090b39d271f6b9ccca950affc2726216d56586e228d4db4aef9613b62d9060200160405180910390a26105bf816113dc565b60008281526020819052604090206106b081611064565b6106b9816110d7565b6106c38183611979565b6106cc816113dc565b600d8101546040805160ff90921682526001600160801b03198416602083015284917fa7cd07a67b125ac6d4948c33b6ccde70ca989031ff7ce5cde16d58b87f1dac629101610559565b600082815260208190526040902061072d81611064565b610736816110d7565b61073f81611b36565b600b81015442106107925760405162461bcd60e51b815260206004820152601b60248201527f546865207475726e2063616e6e6f74206265206469737075746564000000000060448201526064016102aa565b60405133815283907f43b9d34c6d85177517dd481cbf9caacf6b2e142383b2f76cf26dde11f3e613849060200160405180910390a260006107d38284611bbe565b156107f4576107e382600161163b565b90506107ef82826116e4565b61080b565b6107ff82600061163b565b905061080b82826116e4565b6040516001600160a01b038216815284907f8f0fcd6026c81d9ca900f4145862ae745e1903978de64eb126f2adeb6611ff729060200160405180910390a260058201546108599060026133cf565b6001600160a01b038216600090815260016020526040812080549091906108819084906133e6565b9091555050506000928352505060208190526040812080546001600160a01b03199081168255600182018054909116905560048101805461ffff19908116909155600582018390556006820183905560078201805462ffffff1916905560088201805463ffffffff1916905560098201839055600a8201805472ffffffffffffffffffffffffffffffffffffff19169055600b820192909255600d0180549091169055565b600083815260208190526040902061093d81611064565b610946816110d7565b61094f81611dce565b61095a818484611e3c565b6109ba5761096d8161057583600161163b565b837f9f5f23f7663b1c5ab928ddbf8cb33901fabecefd93a48c0f5eb040921259cd1b61099a83600161163b565b6040516001600160a01b03909116815260200160405180910390a2610a9a565b6109c48184611f0f565b6109cd816113dc565b6109d981600354612095565b600d8101546040805160ff90921682526001600160801b03198516602083015285917f8587c7f67399c83ced92eb451a6557e72361e88686a1754935dd69ba01c4f631910160405180910390a26004810154600d82015460ff6101009092048216911603610a9a57610a4a816120ab565b610a5381612290565b837f9f5f23f7663b1c5ab928ddbf8cb33901fabecefd93a48c0f5eb040921259cd1b610a7e83612370565b6040516001600160a01b03909116815260200160405180910390a25b50505050565b6000819003610ad4576002600081548110610abd57610abd6133f9565b90600052602060002001549050610ad46002612496565b6000818152602081905260409020610aec8133612569565b600781015460068201546040805160ff8085168252610100909404909316602084015282015282907f24f1981f02dbbb579abf7b8335bf12bd5de9a9ff0d3abc9e64626bc55e8a2b3b9060600160405180910390a25050565b6000818152602081905260409020610b5c81611064565b610b65816110d7565b610b71816004546127c6565b5050565b6000818152602081905260409020610b8c816110d7565b6000610b9782612be1565b90506004600783015462010000900460ff166006811115610bba57610bba6133a3565b03610c4357827f992716202b7edcab5022ef6a6411a2cedd21909c85d7c513e210c51a39ba4a2634604051610bf191815260200190565b60405180910390a2610c0282612e99565b600d82015460405161010090910460ff161515815283907f91d96b16a34741f2c1ef0cc9f6b816d4a9709e9123d82f2b0ce9772a260b214f90602001610559565b6002600783015462010000900460ff166006811115610c6457610c646133a3565b03610d0a57827feb0295762512b58461a3e68eedbcd10cbafbca1dd2cd5e6e7499471d8dbe6edc34604051610c9b91815260200190565b60405180910390a281546001600160a01b031660009081526001602052604081208054839290610ccc9084906133e6565b90915550506001828101546001600160a01b03166000908152602091909152604081208054349290610cff9084906133e6565b909155506105bf9050565b827ff25ba0ce9f519ceda8e4549a58bd5f2fc0fa6b8ddce5c2bfda106db41b552bc7836005015460405161055991815260200190565b6000818152602081905260409020610d5781611064565b610d60816110d7565b80546000906001600160a01b03163303610d88575060018101546001600160a01b0316610d95565b5080546001600160a01b03165b6001600160a01b038116600090815260038301602052604090205415801590610dd757506001600160a01b038116600090815260038301602052604090205442115b15610e1c57610de682336116e4565b60405133815283907f9f5f23f7663b1c5ab928ddbf8cb33901fabecefd93a48c0f5eb040921259cd1b9060200160405180910390a25b600b820154421015610e705760405162461bcd60e51b815260206004820181905260248201527f546865207265776172642063616e6e6f7420626520636c61696d65642079657460448201526064016102aa565b6000610e7b83612370565b90506001600160a01b03811615610ecf576005830154610e9c9060026133cf565b6001600160a01b03821660009081526001602052604081208054909190610ec49084906133e6565b90915550610f3b9050565b600583015483546001600160a01b031660009081526001602052604081208054909190610efd9084906133e6565b909155505060058301546001808501546001600160a01b03166000908152602091909152604081208054909190610f359084906133e6565b90915550505b6040516001600160a01b038216815284907fb28d276399f08f8991810bacda244e0bee8ef88ac7440413f0d9a29283a027cd9060200160405180910390a2505050600090815260208190526040812080546001600160a01b03199081168255600182018054909116905560048101805461ffff19908116909155600582018390556006820183905560078201805462ffffff1916905560088201805463ffffffff1916905560098201839055600a8201805472ffffffffffffffffffffffffffffffffffffff19169055600b820192909255600d0180549091169055565b6000423360405160200161104992919091825260601b6bffffffffffffffffffffffff1916602082015260340190565b60405160208183030381529060405280519060200120905090565b60018101546001600160a01b0316331480611088575080546001600160a01b031633145b6110d45760405162461bcd60e51b815260206004820152601760248201527f53656e646572206e6f742070617274206f662067616d6500000000000000000060448201526064016102aa565b50565b3360009081526003820160205260409020544210806111055750336000908152600382016020526040902054155b6110d45760405162461bcd60e51b815260206004820152601960248201527f596f7520776572652041464b20666f7220746f6f206c6f6e670000000000000060448201526064016102aa565b60006005600784015462010000900460ff166006811115611174576111746133a3565b146111d25760405162461bcd60e51b815260206004820152602860248201527f43616e6e6f7420616476616e63652067616d65206e6f7420696e20706c6179696044820152676e6720737461746560c01b60648201526084016102aa565b6002600a840154600160901b900460ff1660048111156111f4576111f46133a3565b1461124b5760405162461bcd60e51b815260206004820152602160248201527f5475726e206e6f7420696e20676976696e675f666565646261636b20737461746044820152606560f81b60648201526084016102aa565b3361125784600061163b565b6001600160a01b0316146112ad5760405162461bcd60e51b815260206004820152601660248201527f4e6f7420796f757220666565646261636b207475726e0000000000000000000060448201526064016102aa565b600a83015460801b6001600160801b0319166000908152600c840160205260409020546001600160f01b031983811660e89290921b16148015906113375750600a83015460801b6001600160801b0319166000908152600c8401602052604090205460e81b7fffffff00000000000000000000000000000000000000000000000000000000001615155b15611344575060006113d6565b50600a8201805460801b6001600160801b0319166000908152600c840160205260409020805462ffffff19166001600160f01b031984167d0100000000000000000000000000000000000000000000000000000000001760e81c17905580547fffffffffffffffffffffffffffffff00ffffffffffffffffffffffffffffffff1660f883901c600160801b0217905560015b92915050565b6006600782015462010000900460ff1660068111156113fd576113fd6133a3565b0361142757600a8101805460ff60901b191672040000000000000000000000000000000000001790555b3360009081526003820160205260408120556007810154600a820154600160801b900460ff908116911614801561147e57506003600a820154600160901b900460ff16600481111561147b5761147b6133a3565b14155b156114a357600a810180546003919060ff60901b1916600160901b835b021790555050565b6000600a820154600160901b900460ff1660048111156114c5576114c56133a3565b036114e657600a810180546001919060ff60901b1916600160901b8361149b565b6001600a820154600160901b900460ff166004811115611508576115086133a3565b0361152957600a810180546002919060ff60901b1916600160901b8361149b565b6002600a820154600160901b900460ff16600481111561154b5761154b6133a3565b14801561157057506004810154600a82015460ff918216600160881b90910490911610155b1561159157600a810180546003919060ff60901b1916600160901b8361149b565b6002600a820154600160901b900460ff1660048111156115b3576115b36133a3565b1480156115d757506004810154600a82015460ff918216600160881b909104909116105b156115f857600a810180546001919060ff60901b1916600160901b8361149b565b6003600a820154600160901b900460ff16600481111561161a5761161a6133a3565b036110d457600a810180546004919060ff60901b1916600160901b8361149b565b60008061165984600d0160019054906101000a900460ff1684612fb3565b611686576040805180820190915284546001600160a01b03908116825260018601541660208201526116ab565b6040805180820190915260018501546001600160a01b03908116825285541660208201525b600d85015490915081906116c49060029060ff16613425565b60ff16600281106116d7576116d76133f9565b6020020151949350505050565b6116ed826120ab565b6116f6826113dc565b611701826000612095565b81546001600160a01b039081169082160361174a5781546001600160a01b0390811660009081526002840160205260408082206001908190558501549092168152908120555050565b506001818101546001600160a01b039081166000908152600284016020526040808220939093559254168252812055565b6005600783015462010000900460ff16600681111561179c5761179c6133a3565b146117e95760405162461bcd60e51b815260206004820152601060248201527f57726f6e672067616d652073746174650000000000000000000000000000000060448201526064016102aa565b6004600a830154600160901b900460ff16600481111561180b5761180b6133a3565b148061181c5750600d82015460ff16155b6118685760405162461bcd60e51b815260206004820152601060248201527f57726f6e67207475726e2073746174650000000000000000000000000000000060448201526064016102aa565b6118718261301e565b6000600a830154600160901b900460ff166004811115611893576118936133a3565b146118e05760405162461bcd60e51b815260206004820152601060248201527f57726f6e67207475726e2073746174650000000000000000000000000000000060448201526064016102aa565b6118eb82600061163b565b6001600160a01b0316336001600160a01b0316146119715760405162461bcd60e51b815260206004820152602660248201527f43616e6e6f742073657420636f646520647572696e67206f70706f6e656e742760448201527f73207475726e000000000000000000000000000000000000000000000000000060648201526084016102aa565b600990910155565b6005600783015462010000900460ff16600681111561199a5761199a6133a3565b146119f85760405162461bcd60e51b815260206004820152602860248201527f43616e6e6f7420616476616e63652067616d65206e6f7420696e20706c6179696044820152676e6720737461746560c01b60648201526084016102aa565b6001600a830154600160901b900460ff166004811115611a1a57611a1a6133a3565b14611a675760405162461bcd60e51b815260206004820152601a60248201527f5475726e206e6f7420696e206775657373696e6720737461746500000000000060448201526064016102aa565b33611a7383600161163b565b6001600160a01b031614611ac95760405162461bcd60e51b815260206004820152601660248201527f4e6f7420796f7572206775657373696e67207475726e0000000000000000000060448201526064016102aa565b600a8201805460019190601190611aeb908490600160881b900460ff16613447565b92506101000a81548160ff021916908360ff160217905550808260080160020160006101000a8154816fffffffffffffffffffffffffffffffff021916908360801c02179055505050565b33611b4282600161163b565b6001600160a01b0316146110d45760405162461bcd60e51b815260206004820152602560248201527f4d6573736167652073656e646572206973206e6f742074686520636f6465627260448201527f65616b657200000000000000000000000000000000000000000000000000000060648201526084016102aa565b6001600160801b031981166000908152600c8301602052604081205460e881901b9060ff601082901c811691600881901c82169116808503611c075760009450505050506113d6565b600a87015460801b600080888318611c1d6131f9565b60005b60078d015460ff9081169082161015611ce857611c3e816008613460565b60ff16836fffffffffffffffffffffffffffffffff1916901b7effffffffffffffffffffffffffffffffffffffffffffffffffffffffffffff1916600060f81b03611c9557611c8e600186613447565b9450611ce0565b600182611ca3836008613460565b6001600160801b03198f1660ff919091161b60f81c60288110611cc857611cc86133f9565b60200201818151611cd99190613447565b60ff169052505b600101611c20565b5060005b60078d015460ff9081169082161015611da257600082611d0d836008613460565b6001600160801b0319891660ff919091161b60f81c60288110611d3257611d326133f9565b6020020151905060ff811615611d9957611d4c8186613447565b9450600183611d5c846008613460565b6001600160801b03198a1660ff919091161b60f81c60288110611d8157611d816133f9565b60200201818151611d929190613483565b60ff169052505b50600101611cec565b508760ff168460ff16148015611dbd57508660ff168360ff16145b159c9b505050505050505050505050565b33611dda82600061163b565b6001600160a01b0316146110d45760405162461bcd60e51b815260206004820152602360248201527f4d6573736167652073656e646572206973206e6f742074686520636f64656d6160448201526235b2b960e91b60648201526084016102aa565b6000805b600785015460ff9081169082161015611ea7576007850154611e6c90600190610100900460ff16613483565b60ff16611e7a826008613460565b6001600160801b0319861660ff919091161b60f81c1115611e9f576000915050611f08565b600101611e40565b506040516001600160801b0319841660208201527fffffffff00000000000000000000000000000000000000000000000000000000831660308201526034016040516020818303038152906040528051906020012084600801600101541490505b9392505050565b6005600783015462010000900460ff166006811115611f3057611f306133a3565b14611f8e5760405162461bcd60e51b815260206004820152602860248201527f43616e6e6f7420616476616e63652067616d65206e6f7420696e20706c6179696044820152676e6720737461746560c01b60648201526084016102aa565b6003600a830154600160901b900460ff166004811115611fb057611fb06133a3565b146120075760405162461bcd60e51b815260206004820152602160248201527f5475726e206e6f7420696e20676976696e675f666565646261636b20737461746044820152606560f81b60648201526084016102aa565b3361201383600061163b565b6001600160a01b0316146120755760405162461bcd60e51b815260206004820152602360248201527f4d6573736167652073656e646572206973206e6f742074686520636f64656d6160448201526235b2b960e91b60648201526084016102aa565b600a9190910180546001600160801b03191660809290921c919091179055565b61209f81426133e6565b600b9092019190915550565b6005600782015462010000900460ff1660068111156120cc576120cc6133a3565b036120e55760078101805462ff00001916620600001790555b3360009081526003820160205260408120819055600782015462010000900460ff166006811115612118576121186133a3565b03612137576007810180546002919062ff00001916620100008361149b565b6001600782015462010000900460ff166006811115612158576121586133a3565b03612177576007810180546002919062ff00001916620100008361149b565b6002600782015462010000900460ff166006811115612198576121986133a3565b036121b7576007810180546003919062ff00001916620100008361149b565b6003600782015462010000900460ff1660068111156121d8576121d86133a3565b1480156121e757506005810154155b15612206576007810180546002919062ff00001916620100008361149b565b6003600782015462010000900460ff166006811115612227576122276133a3565b1480156122375750600581015415155b15612256576007810180546004919062ff00001916620100008361149b565b6004600782015462010000900460ff166006811115612277576122776133a3565b036110d457600701805462ff0000191662050000179055565b600a810154600160881b900460ff166002820160006122af848261163b565b6001600160a01b03166001600160a01b0316815260200190815260200160002060008282546122de91906133e6565b90915550506004810154600a820154600160881b900460ff908116911614801561231e57506007810154600a820154600160801b900460ff908116911614155b156110d457806006015481600201600061233984600061163b565b6001600160a01b03166001600160a01b03168152602001908152602001600020600082825461236891906133e6565b909155505050565b60006006600783015462010000900460ff166006811115612393576123936133a3565b146124065760405162461bcd60e51b815260206004820152602d60248201527f43616e6e6f74206765742077696e6e6572207768696c652067616d652069732060448201527f6e6f7420636f6d706c657465640000000000000000000000000000000000000060648201526084016102aa565b60018201546001600160a01b039081166000908152600284016020526040808220548554909316825290205411156124465750546001600160a01b031690565b60018201546001600160a01b039081166000908152600284016020526040808220548554909316825290205410156124895750600101546001600160a01b031690565b506000919050565b919050565b80546124e45760405162461bcd60e51b815260206004820152600e60248201527f417272617920697320656d70747900000000000000000000000000000000000060448201526064016102aa565b60015b815481101561253f57818181548110612502576125026133f9565b90600052602060002001548260018361251b919061349c565b8154811061252b5761252b6133f9565b6000918252602090912001556001016124e7565b5080805480612550576125506134af565b6001900381819060005260206000200160009055905550565b81546001600160a01b03166125d65760405162461bcd60e51b815260206004820152602d60248201527f5b496e7465726e616c204572726f725d20537570706c6965642047616d65206460448201526c1bd95cc81b9bdd08195e1a5cdd609a1b60648201526084016102aa565b81546001600160a01b038083169116036126585760405162461bcd60e51b815260206004820152603860248201527f5b496e7465726e616c204572726f725d2043726561746f7220616e64206f707060448201527f6f6e656e742063616e6e6f74206265207468652073616d65000000000000000060648201526084016102aa565b6000600783015462010000900460ff166006811115612679576126796133a3565b14806126a357506001600783015462010000900460ff1660068111156126a1576126a16133a3565b145b6127155760405162461bcd60e51b815260206004820152603660248201527f5b496e7465726e616c204572726f725d20537570706c6965642047616d65206360448201527f616e6e6f7420616363657074206f70706f6e656e74730000000000000000000060648201526084016102aa565b6001600783015462010000900460ff166006811115612736576127366133a3565b0361279f5760018201546001600160a01b0382811691161461279a5760405162461bcd60e51b815260206004820152601960248201527f4f70706f6e656e742063616e6e6f74206a6f696e2047616d650000000000000060448201526064016102aa565b6127bd565b6001820180546001600160a01b0319166001600160a01b0383161790555b610b71826120ab565b600080600784015462010000900460ff1660068111156127e8576127e86133a3565b1415801561281557506001600784015462010000900460ff166006811115612812576128126133a3565b14155b6128615760405162461bcd60e51b815260206004820152601460248201527f47616d6520686173206e6f74207374617274656400000000000000000000000060448201526064016102aa565b6002600784015462010000900460ff166006811115612882576128826133a3565b03612898575081546001600160a01b03166128ce565b6003600784015462010000900460ff1660068111156128b9576128b96133a3565b036128ce575060018201546001600160a01b03165b6005600784015462010000900460ff1660068111156128ef576128ef6133a3565b1461293c5760405162461bcd60e51b815260206004820152601460248201527f47616d6520686173206e6f74207374617274656400000000000000000000000060448201526064016102aa565b61294783600161163b565b6001600160a01b03163303612a2b576000600a840154600160901b900460ff166004811115612978576129786133a3565b14806129a357506002600a840154600160901b900460ff1660048111156129a1576129a16133a3565b145b806129cd57506003600a840154600160901b900460ff1660048111156129cb576129cb6133a3565b145b612a195760405162461bcd60e51b815260206004820152601e60248201527f43616e6e6f742061636375736520647572696e67206f776e207068617365000060448201526064016102aa565b612a2483600061163b565b9050612ad2565b6001600a840154600160901b900460ff166004811115612a4d57612a4d6133a3565b1480612a7857506004600a840154600160901b900460ff166004811115612a7657612a766133a3565b145b612ac45760405162461bcd60e51b815260206004820152601e60248201527f43616e6e6f742061636375736520647572696e67206f776e207068617365000060448201526064016102aa565b612acf83600161163b565b90505b600b8301544211612b4b5760405162461bcd60e51b815260206004820152602360248201527f43616e6e6f742061636375736520647572696e67207475726e206c6f636b207460448201527f696d65000000000000000000000000000000000000000000000000000000000060648201526084016102aa565b6001600160a01b038116600090815260038401602052604090205415612bb35760405162461bcd60e51b815260206004820152600f60248201527f416c72656164792061636375736564000000000000000000000000000000000060448201526064016102aa565b612bbd82426133e6565b6001600160a01b039091166000908152600390930160205260409092209190915550565b80546000906001600160a01b0316612c515760405162461bcd60e51b815260206004820152602d60248201527f5b496e7465726e616c204572726f725d20537570706c6965642047616d65206460448201526c1bd95cc81b9bdd08195e1a5cdd609a1b60648201526084016102aa565b6002600783015462010000900460ff166006811115612c7257612c726133a3565b1480612c9c57506003600783015462010000900460ff166006811115612c9a57612c9a6133a3565b145b612ce85760405162461bcd60e51b815260206004820152601960248201527f47616d65206e6f7420696e207374616b696e672070686173650000000000000060448201526064016102aa565b60018201546001600160a01b0316331480612d0c575081546001600160a01b031633145b612d585760405162461bcd60e51b815260206004820152601760248201527f53656e646572206e6f742070617274206f662067616d6500000000000000000060448201526064016102aa565b81546001600160a01b031633148015612d8f57506002600783015462010000900460ff166006811115612d8d57612d8d6133a3565b145b80612dcf575060018201546001600160a01b031633148015612dcf57506003600783015462010000900460ff166006811115612dcd57612dcd6133a3565b145b612e1b5760405162461bcd60e51b815260206004820152601f60248201527f4e6f74206d6573736167652073656e646572207374616b696e67207475726e0060448201526064016102aa565b60058201546002600784015462010000900460ff166006811115612e4157612e416133a3565b03612e5157346005840155612e90565b6003600784015462010000900460ff166006811115612e7257612e726133a3565b148015612e83575034836005015414155b15612e9057600060058401555b6113d6836120ab565b6004600782015462010000900460ff166006811115612eba57612eba6133a3565b14612f2d5760405162461bcd60e51b815260206004820152603060248201527f5b496e7465726e616c204572726f725d20537570706c6965642067616d65206360448201527f616e6e6f7420626520737461727465640000000000000000000000000000000060648201526084016102aa565b600060024233604051602001612f5f92919091825260601b6bffffffffffffffffffffffff1916602082015260340190565b6040516020818303038152906040528051906020012060001c612f8291906134c5565b905080600103612f9e57600d8201805461ff0019166101001790555b50600701805462ff0000191662050000179055565b6000828015612fbf5750815b15612fcc575060016113d6565b828015612fd7575081155b15612fe4575060006113d6565b82158015612fef5750815b15612ffc575060006113d6565b82158015613008575081155b15613015575060016113d6565b50600092915050565b6005600782015462010000900460ff16600681111561303f5761303f6133a3565b1461309d5760405162461bcd60e51b815260206004820152602860248201527f43616e6e6f7420616476616e63652067616d65206e6f7420696e20706c6179696044820152676e6720737461746560c01b60648201526084016102aa565b6004810154600d82015460ff61010090920482169116106131005760405162461bcd60e51b815260206004820152601e60248201527f43616e6e6f7420696e6372656d656e74207475726e732066757274686572000060448201526064016102aa565b600b81015442116131535760405162461bcd60e51b815260206004820152601a60248201527f5761697420666f72206c617374207475726e20746f206c6f636b00000000000060448201526064016102aa565b61315c81612290565b600d81015460ff16156131a55760088101805463ffffffff19169055600060098201819055600a8201805472ffffffffffffffffffffffffffffffffffffff19169055600b8201555b600d81018054600191906000906131c090849060ff16613447565b825460ff9182166101009390930a928302919092021990911617905550600a810180546000919060ff60901b1916600160901b8361149b565b6040518061050001604052806028906020820280368337509192915050565b803560ff8116811461249157600080fd5b6000806000806080858703121561323f57600080fd5b84356001600160a01b038116811461325657600080fd5b935061326460208601613218565b925061327260408601613218565b9396929550929360600135925050565b6000806040838503121561329557600080fd5b8235915060208301356001600160f01b0319811681146132b457600080fd5b809150509250929050565b600080604083850312156132d257600080fd5b50508035926020909101359150565b80356001600160801b03198116811461249157600080fd5b6000806040838503121561330c57600080fd5b8235915061331c602084016132e1565b90509250929050565b60008060006060848603121561333a57600080fd5b8335925061334a602085016132e1565b915060408401357fffffffff000000000000000000000000000000000000000000000000000000008116811461337f57600080fd5b809150509250925092565b60006020828403121561339c57600080fd5b5035919050565b634e487b7160e01b600052602160045260246000fd5b634e487b7160e01b600052601160045260246000fd5b80820281158282048414176113d6576113d66133b9565b808201808211156113d6576113d66133b9565b634e487b7160e01b600052603260045260246000fd5b634e487b7160e01b600052601260045260246000fd5b600060ff8316806134385761343861340f565b8060ff84160691505092915050565b60ff81811683821601908111156113d6576113d66133b9565b60ff818116838216029081169081811461347c5761347c6133b9565b5092915050565b60ff82811682821603908111156113d6576113d66133b9565b818103818111156113d6576113d66133b9565b634e487b7160e01b600052603160045260246000fd5b6000826134d4576134d461340f565b50069056fea2646970667358221220ad493dcbb5f84de2a20c6a678ef101538aca0046d7713e86311269116edeeeba64736f6c63430008180033",
  "linkReferences": {},
  "deployedLinkReferences": {}
}