{
  "_format": "hh-sol-artifact-1",
  "contractName": "Mastermind",
  "sourceName": "contracts/Mastermind.sol",
  "abi": [
    {
      "inputs": [],
      "name": "FailedStake",
      "type": "error"
    },
    {
      "anonymous": false,
      "inputs": [
        {
          "indexed": true,
          "internalType": "bytes32",
          "name": "_game_id",
          "type": "bytes32"
        },
        {
          "indexed": false,
          "internalType": "uint256",
          "name": "_turn_num",
          "type": "uint256"
        },
        {
          "indexed": false,
          "internalType": "bytes2",
          "name": "_feedback",
          "type": "bytes2"
        }
      ],
      "name": "FeedbackSent",
      "type": "event"
    },
    {
      "anonymous": false,
      "inputs": [
        {
          "indexed": true,
          "internalType": "bytes32",
          "name": "_game_id",
          "type": "bytes32"
        },
        {
          "indexed": true,
          "internalType": "address",
          "name": "_game_creator",
          "type": "address"
        }
      ],
      "name": "GameCreated",
      "type": "event"
    },
    {
      "anonymous": false,
      "inputs": [
        {
          "indexed": true,
          "internalType": "bytes32",
          "name": "_game_id",
          "type": "bytes32"
        },
        {
          "indexed": false,
          "internalType": "bool",
          "name": "_creator_is_first_breaker",
          "type": "bool"
        }
      ],
      "name": "GameStart",
      "type": "event"
    },
    {
      "anonymous": false,
      "inputs": [
        {
          "indexed": true,
          "internalType": "bytes32",
          "name": "_game_id",
          "type": "bytes32"
        },
        {
          "indexed": false,
          "internalType": "address",
          "name": "_winner",
          "type": "address"
        }
      ],
      "name": "GameWinner",
      "type": "event"
    },
    {
      "anonymous": false,
      "inputs": [
        {
          "indexed": true,
          "internalType": "bytes32",
          "name": "_game_id",
          "type": "bytes32"
        },
        {
          "indexed": false,
          "internalType": "uint256",
          "name": "_turn_num",
          "type": "uint256"
        },
        {
          "indexed": false,
          "internalType": "bytes16",
          "name": "_guess",
          "type": "bytes16"
        }
      ],
      "name": "GuessSent",
      "type": "event"
    },
    {
      "anonymous": false,
      "inputs": [
        {
          "indexed": true,
          "internalType": "bytes32",
          "name": "_game_id",
          "type": "bytes32"
        },
        {
          "indexed": false,
          "internalType": "uint256",
          "name": "_matchmaking_time",
          "type": "uint256"
        }
      ],
      "name": "PlayersReady",
      "type": "event"
    },
    {
      "anonymous": false,
      "inputs": [
        {
          "indexed": true,
          "internalType": "bytes32",
          "name": "_game_id",
          "type": "bytes32"
        },
        {
          "indexed": false,
          "internalType": "address",
          "name": "_claimer",
          "type": "address"
        }
      ],
      "name": "RewardClaimed",
      "type": "event"
    },
    {
      "anonymous": false,
      "inputs": [
        {
          "indexed": true,
          "internalType": "bytes32",
          "name": "_game_id",
          "type": "bytes32"
        },
        {
          "indexed": false,
          "internalType": "uint256",
          "name": "_turn_num",
          "type": "uint256"
        }
      ],
      "name": "SecretSet",
      "type": "event"
    },
    {
      "anonymous": false,
      "inputs": [
        {
          "indexed": true,
          "internalType": "bytes32",
          "name": "_game_id",
          "type": "bytes32"
        },
        {
          "indexed": false,
          "internalType": "uint256",
          "name": "_opp_stake",
          "type": "uint256"
        }
      ],
      "name": "StakeFailed",
      "type": "event"
    },
    {
      "anonymous": false,
      "inputs": [
        {
          "indexed": true,
          "internalType": "bytes32",
          "name": "_game_id",
          "type": "bytes32"
        },
        {
          "indexed": false,
          "internalType": "uint256",
          "name": "_stake",
          "type": "uint256"
        }
      ],
      "name": "StakeSent",
      "type": "event"
    },
    {
      "anonymous": false,
      "inputs": [
        {
          "indexed": true,
          "internalType": "bytes32",
          "name": "_game_id",
          "type": "bytes32"
        },
        {
          "indexed": false,
          "internalType": "uint256",
          "name": "_stake",
          "type": "uint256"
        }
      ],
      "name": "StakeSuccessful",
      "type": "event"
    },
    {
      "anonymous": false,
      "inputs": [
        {
          "indexed": true,
          "internalType": "bytes32",
          "name": "_game_id",
          "type": "bytes32"
        },
        {
          "indexed": false,
          "internalType": "uint256",
          "name": "_turn_num",
          "type": "uint256"
        },
        {
          "indexed": false,
          "internalType": "bytes16",
          "name": "_code_sol",
          "type": "bytes16"
        }
      ],
      "name": "TurnOver",
      "type": "event"
    },
    {
      "anonymous": false,
      "inputs": [
        {
          "indexed": true,
          "internalType": "bytes32",
          "name": "_game_id",
          "type": "bytes32"
        },
        {
          "indexed": false,
          "internalType": "address",
          "name": "_sender",
          "type": "address"
        }
      ],
      "name": "disputeSent",
      "type": "event"
    },
    {
      "anonymous": false,
      "inputs": [
        {
          "indexed": true,
          "internalType": "bytes32",
          "name": "_game_id",
          "type": "bytes32"
        },
        {
          "indexed": false,
          "internalType": "address",
          "name": "_winner",
          "type": "address"
        }
      ],
      "name": "disputeWon",
      "type": "event"
    },
    {
      "inputs": [
        {
          "internalType": "bytes32",
          "name": "_game_id",
          "type": "bytes32"
        }
      ],
      "name": "accuseAFK",
      "outputs": [],
      "stateMutability": "nonpayable",
      "type": "function"
    },
    {
      "inputs": [
        {
          "internalType": "bytes32",
          "name": "_game_id",
          "type": "bytes32"
        }
      ],
      "name": "claimReward",
      "outputs": [],
      "stateMutability": "nonpayable",
      "type": "function"
    },
    {
      "inputs": [
        {
          "internalType": "address",
          "name": "_opponent",
          "type": "address"
        },
        {
          "internalType": "uint8",
          "name": "_code_len",
          "type": "uint8"
        },
        {
          "internalType": "uint8",
          "name": "_code_symbols_amt",
          "type": "uint8"
        },
        {
          "internalType": "uint256",
          "name": "_bonus",
          "type": "uint256"
        }
      ],
      "name": "createGame",
      "outputs": [
        {
          "internalType": "bytes32",
          "name": "",
          "type": "bytes32"
        }
      ],
      "stateMutability": "nonpayable",
      "type": "function"
    },
    {
      "inputs": [
        {
          "internalType": "bytes32",
          "name": "_game_id",
          "type": "bytes32"
        },
        {
          "internalType": "bytes16",
          "name": "_guess",
          "type": "bytes16"
        }
      ],
      "name": "dispute",
      "outputs": [],
      "stateMutability": "nonpayable",
      "type": "function"
    },
    {
      "inputs": [
        {
          "internalType": "bytes32",
          "name": "_game_id",
          "type": "bytes32"
        },
        {
          "internalType": "bytes2",
          "name": "_feedback",
          "type": "bytes2"
        }
      ],
      "name": "giveFeedback",
      "outputs": [],
      "stateMutability": "nonpayable",
      "type": "function"
    },
    {
      "inputs": [
        {
          "internalType": "bytes32",
          "name": "_game_id",
          "type": "bytes32"
        },
        {
          "internalType": "bytes16",
          "name": "_guess",
          "type": "bytes16"
        }
      ],
      "name": "guess",
      "outputs": [],
      "stateMutability": "nonpayable",
      "type": "function"
    },
    {
      "inputs": [
        {
          "internalType": "bytes32",
          "name": "_game_id",
          "type": "bytes32"
        }
      ],
      "name": "joinGame",
      "outputs": [],
      "stateMutability": "nonpayable",
      "type": "function"
    },
    {
      "inputs": [
        {
          "internalType": "bytes32",
          "name": "_game_id",
          "type": "bytes32"
        }
      ],
      "name": "proposeStake",
      "outputs": [],
      "stateMutability": "payable",
      "type": "function"
    },
    {
      "inputs": [
        {
          "internalType": "bytes32",
          "name": "_game_id",
          "type": "bytes32"
        },
        {
          "internalType": "bytes16",
          "name": "_code_sol",
          "type": "bytes16"
        },
        {
          "internalType": "bytes4",
          "name": "_salt",
          "type": "bytes4"
        }
      ],
      "name": "revealCode",
      "outputs": [],
      "stateMutability": "nonpayable",
      "type": "function"
    },
    {
      "inputs": [
        {
          "internalType": "bytes32",
          "name": "_game_id",
          "type": "bytes32"
        },
        {
          "internalType": "bytes32",
          "name": "_code_hash",
          "type": "bytes32"
        }
      ],
      "name": "setCodeHash",
      "outputs": [],
      "stateMutability": "nonpayable",
      "type": "function"
    },
    {
      "inputs": [],
      "name": "withdraw",
      "outputs": [
        {
          "internalType": "bool",
          "name": "",
          "type": "bool"
        }
      ],
      "stateMutability": "nonpayable",
      "type": "function"
    }
  ],
  "bytecode": "0x6080604052603c60035561016860045534801561001b57600080fd5b506134f48061002b6000396000f3fe6080604052600436106100bc5760003560e01c8063a69bf4ac11610074578063c8134a661161004e578063c8134a66146101db578063eda4906b146101fb578063f54140231461020e57600080fd5b8063a69bf4ac1461017b578063bdd5cbbb1461019b578063bf474766146101bb57600080fd5b80633ccfd60b116100a55780633ccfd60b14610116578063860a48211461013b578063933616741461015b57600080fd5b80630f23a3c1146100c15780632b6de0e6146100f4575b600080fd5b3480156100cd57600080fd5b506100e16100dc36600461320e565b61022e565b6040519081526020015b60405180910390f35b34801561010057600080fd5b5061011461010f366004613267565b6104db565b005b34801561012257600080fd5b5061012b6105c4565b60405190151581526020016100eb565b34801561014757600080fd5b506101146101563660046132a4565b610628565b34801561016757600080fd5b506101146101763660046132de565b610699565b34801561018757600080fd5b506101146101963660046132de565b610716565b3480156101a757600080fd5b506101146101b636600461330a565b610926565b3480156101c757600080fd5b506101146101d636600461336f565b610aa0565b3480156101e757600080fd5b506101146101f636600461336f565b610b2a565b61011461020936600461336f565b610b5a565b34801561021a57600080fd5b5061011461022936600461336f565b610d25565b6000336001600160a01b038616036102b35760405162461bcd60e51b815260206004820152602760248201527f546865206f70706f6e656e742063616e6e6f74206265207468652067616d652060448201527f63726561746f720000000000000000000000000000000000000000000000000060648201526084015b60405180910390fd5b60108460ff16111561032d5760405162461bcd60e51b815260206004820152602160248201527f54686520636f64652063616e6e6f74206265206c6f6e676572207468616e203160448201527f360000000000000000000000000000000000000000000000000000000000000060648201526084016102aa565b60288360ff1611156103a75760405162461bcd60e51b815260206004820152602860248201527f54686520636f64652063616e6e6f742068617665206d6f7265207468616e203460448201527f3020636f6c6f727300000000000000000000000000000000000000000000000060648201526084016102aa565b60006103b1610ffe565b600081815260208190526040902080546001600160a01b031916331781559091506001600160a01b0387166104285760078101805462ff000019169055600280546001810182556000919091527f405787fa12a823e0f2b7631cc41b3ba8828b3321ca811111fa75cd3aa3bb5ace0182905561045d565b600181810180546001600160a01b0319166001600160a01b038a1617905560078201805462ff00001916620100008302179055505b6006810184905560048101805461020a61ffff199182161790915560078201805460ff88811661010002919093169289169290921791909117905580546040516001600160a01b039091169083907fdb39b7323105b04a697f43db521ca7e936b02b98992c04ce3bbfa4a59d789ff690600090a35095945050505050565b60008281526020819052604090206104f281611049565b6104fb816110bc565b6105058183611136565b1561056657610513816113c1565b600d8101546040805160ff90921682526001600160f01b03198416602083015284917f6a0e1a90932de2bc5b8eb1107590b18e9500953482b15942dbe3cbf98f25c4f891015b60405180910390a2505050565b61057a81610575836001611620565b6116c9565b827f9f5f23f7663b1c5ab928ddbf8cb33901fabecefd93a48c0f5eb040921259cd1b6105a7836001611620565b6040516001600160a01b039091168152602001610559565b505050565b33600090815260016020526040812054801561062057336000818152600160205260408082208290555183156108fc0291849190818181858888f193505050506106205733600090815260016020526040812091909155919050565b600191505090565b600082815260208190526040902061063f81611049565b610648816110bc565b6106528183611760565b600d81015460405160ff909116815283907f639b32090b39d271f6b9ccca950affc2726216d56586e228d4db4aef9613b62d9060200160405180910390a26105bf816113c1565b60008281526020819052604090206106b081611049565b6106b9816110bc565b6106c3818361195e565b6106cc816113c1565b600d8101546040805160ff90921682526001600160801b03198416602083015284917fa7cd07a67b125ac6d4948c33b6ccde70ca989031ff7ce5cde16d58b87f1dac629101610559565b600082815260208190526040902061072d81611049565b610736816110bc565b61073f81611b1b565b600b81015442106107925760405162461bcd60e51b815260206004820152601b60248201527f546865207475726e2063616e6e6f74206265206469737075746564000000000060448201526064016102aa565b60405133815283907f43b9d34c6d85177517dd481cbf9caacf6b2e142383b2f76cf26dde11f3e613849060200160405180910390a260006107d38284611ba3565b156107f4576107e3826001611620565b90506107ef82826116c9565b61080b565b6107ff826000611620565b905061080b82826116c9565b6040516001600160a01b038216815284907f8f0fcd6026c81d9ca900f4145862ae745e1903978de64eb126f2adeb6611ff729060200160405180910390a260058201546108599060026133b4565b6001600160a01b038216600090815260016020526040812080549091906108819084906133cb565b9091555050506000928352505060208190526040812080546001600160a01b03199081168255600182018054909116905560048101805461ffff19908116909155600582018390556006820183905560078201805462ffffff1916905560088201805463ffffffff1916905560098201839055600a8201805472ffffffffffffffffffffffffffffffffffffff19169055600b820192909255600d0180549091169055565b600083815260208190526040902061093d81611049565b610946816110bc565b61094f81611db3565b61095a818484611e21565b6109ba5761096d81610575836001611620565b837f9f5f23f7663b1c5ab928ddbf8cb33901fabecefd93a48c0f5eb040921259cd1b61099a836001611620565b6040516001600160a01b03909116815260200160405180910390a2610a9a565b6109c48184611ef4565b6109cd816113c1565b6109d98160035461207a565b600d8101546040805160ff90921682526001600160801b03198516602083015285917f8587c7f67399c83ced92eb451a6557e72361e88686a1754935dd69ba01c4f631910160405180910390a26004810154600d82015460ff6101009092048216911603610a9a57610a4a81612090565b610a5381612275565b837f9f5f23f7663b1c5ab928ddbf8cb33901fabecefd93a48c0f5eb040921259cd1b610a7e83612355565b6040516001600160a01b03909116815260200160405180910390a25b50505050565b6000819003610ad4576002600081548110610abd57610abd6133de565b90600052602060002001549050610ad4600261247b565b6000818152602081905260409020610aec813361254e565b817f863dfc1f4d0697a3f0619358dd3ad0702265452ac2ca8339512fe4a20536c40c42604051610b1e91815260200190565b60405180910390a25050565b6000818152602081905260409020610b4181611049565b610b4a816110bc565b610b56816004546127ab565b5050565b6000818152602081905260409020610b71816110bc565b6000610b7c82612bc6565b90506004600783015462010000900460ff166006811115610b9f57610b9f613388565b03610c2857827f992716202b7edcab5022ef6a6411a2cedd21909c85d7c513e210c51a39ba4a2634604051610bd691815260200190565b60405180910390a2610be782612e7e565b600d82015460405161010090910460ff161515815283907f91d96b16a34741f2c1ef0cc9f6b816d4a9709e9123d82f2b0ce9772a260b214f90602001610559565b6002600783015462010000900460ff166006811115610c4957610c49613388565b03610cef57827feb0295762512b58461a3e68eedbcd10cbafbca1dd2cd5e6e7499471d8dbe6edc34604051610c8091815260200190565b60405180910390a281546001600160a01b031660009081526001602052604081208054839290610cb19084906133cb565b90915550506001828101546001600160a01b03166000908152602091909152604081208054349290610ce49084906133cb565b909155506105bf9050565b827ff25ba0ce9f519ceda8e4549a58bd5f2fc0fa6b8ddce5c2bfda106db41b552bc7836005015460405161055991815260200190565b6000818152602081905260409020610d3c81611049565b610d45816110bc565b80546000906001600160a01b03163303610d6d575060018101546001600160a01b0316610d7a565b5080546001600160a01b03165b6001600160a01b038116600090815260038301602052604090205415801590610dbc57506001600160a01b038116600090815260038301602052604090205442115b15610e0157610dcb82336116c9565b60405133815283907f9f5f23f7663b1c5ab928ddbf8cb33901fabecefd93a48c0f5eb040921259cd1b9060200160405180910390a25b600b820154421015610e555760405162461bcd60e51b815260206004820181905260248201527f546865207265776172642063616e6e6f7420626520636c61696d65642079657460448201526064016102aa565b6000610e6083612355565b90506001600160a01b03811615610eb4576005830154610e819060026133b4565b6001600160a01b03821660009081526001602052604081208054909190610ea99084906133cb565b90915550610f209050565b600583015483546001600160a01b031660009081526001602052604081208054909190610ee29084906133cb565b909155505060058301546001808501546001600160a01b03166000908152602091909152604081208054909190610f1a9084906133cb565b90915550505b6040516001600160a01b038216815284907fb28d276399f08f8991810bacda244e0bee8ef88ac7440413f0d9a29283a027cd9060200160405180910390a2505050600090815260208190526040812080546001600160a01b03199081168255600182018054909116905560048101805461ffff19908116909155600582018390556006820183905560078201805462ffffff1916905560088201805463ffffffff1916905560098201839055600a8201805472ffffffffffffffffffffffffffffffffffffff19169055600b820192909255600d0180549091169055565b6000423360405160200161102e92919091825260601b6bffffffffffffffffffffffff1916602082015260340190565b60405160208183030381529060405280519060200120905090565b60018101546001600160a01b031633148061106d575080546001600160a01b031633145b6110b95760405162461bcd60e51b815260206004820152601760248201527f53656e646572206e6f742070617274206f662067616d6500000000000000000060448201526064016102aa565b50565b3360009081526003820160205260409020544210806110ea5750336000908152600382016020526040902054155b6110b95760405162461bcd60e51b815260206004820152601960248201527f596f7520776572652041464b20666f7220746f6f206c6f6e670000000000000060448201526064016102aa565b60006005600784015462010000900460ff16600681111561115957611159613388565b146111b75760405162461bcd60e51b815260206004820152602860248201527f43616e6e6f7420616476616e63652067616d65206e6f7420696e20706c6179696044820152676e6720737461746560c01b60648201526084016102aa565b6002600a840154600160901b900460ff1660048111156111d9576111d9613388565b146112305760405162461bcd60e51b815260206004820152602160248201527f5475726e206e6f7420696e20676976696e675f666565646261636b20737461746044820152606560f81b60648201526084016102aa565b3361123c846000611620565b6001600160a01b0316146112925760405162461bcd60e51b815260206004820152601660248201527f4e6f7420796f757220666565646261636b207475726e0000000000000000000060448201526064016102aa565b600a83015460801b6001600160801b0319166000908152600c840160205260409020546001600160f01b031983811660e89290921b161480159061131c5750600a83015460801b6001600160801b0319166000908152600c8401602052604090205460e81b7fffffff00000000000000000000000000000000000000000000000000000000001615155b15611329575060006113bb565b50600a8201805460801b6001600160801b0319166000908152600c840160205260409020805462ffffff19166001600160f01b031984167d0100000000000000000000000000000000000000000000000000000000001760e81c17905580547fffffffffffffffffffffffffffffff00ffffffffffffffffffffffffffffffff1660f883901c600160801b0217905560015b92915050565b6006600782015462010000900460ff1660068111156113e2576113e2613388565b0361140c57600a8101805460ff60901b191672040000000000000000000000000000000000001790555b3360009081526003820160205260408120556007810154600a820154600160801b900460ff908116911614801561146357506003600a820154600160901b900460ff16600481111561146057611460613388565b14155b1561148857600a810180546003919060ff60901b1916600160901b835b021790555050565b6000600a820154600160901b900460ff1660048111156114aa576114aa613388565b036114cb57600a810180546001919060ff60901b1916600160901b83611480565b6001600a820154600160901b900460ff1660048111156114ed576114ed613388565b0361150e57600a810180546002919060ff60901b1916600160901b83611480565b6002600a820154600160901b900460ff16600481111561153057611530613388565b14801561155557506004810154600a82015460ff918216600160881b90910490911610155b1561157657600a810180546003919060ff60901b1916600160901b83611480565b6002600a820154600160901b900460ff16600481111561159857611598613388565b1480156115bc57506004810154600a82015460ff918216600160881b909104909116105b156115dd57600a810180546001919060ff60901b1916600160901b83611480565b6003600a820154600160901b900460ff1660048111156115ff576115ff613388565b036110b957600a810180546004919060ff60901b1916600160901b83611480565b60008061163e84600d0160019054906101000a900460ff1684612f98565b61166b576040805180820190915284546001600160a01b0390811682526001860154166020820152611690565b6040805180820190915260018501546001600160a01b03908116825285541660208201525b600d85015490915081906116a99060029060ff1661340a565b60ff16600281106116bc576116bc6133de565b6020020151949350505050565b6116d282612090565b6116db826113c1565b6116e682600061207a565b81546001600160a01b039081169082160361172f5781546001600160a01b0390811660009081526002840160205260408082206001908190558501549092168152908120555050565b506001818101546001600160a01b039081166000908152600284016020526040808220939093559254168252812055565b6005600783015462010000900460ff16600681111561178157611781613388565b146117ce5760405162461bcd60e51b815260206004820152601060248201527f57726f6e672067616d652073746174650000000000000000000000000000000060448201526064016102aa565b6004600a830154600160901b900460ff1660048111156117f0576117f0613388565b14806118015750600d82015460ff16155b61184d5760405162461bcd60e51b815260206004820152601060248201527f57726f6e67207475726e2073746174650000000000000000000000000000000060448201526064016102aa565b61185682613003565b6000600a830154600160901b900460ff16600481111561187857611878613388565b146118c55760405162461bcd60e51b815260206004820152601060248201527f57726f6e67207475726e2073746174650000000000000000000000000000000060448201526064016102aa565b6118d0826000611620565b6001600160a01b0316336001600160a01b0316146119565760405162461bcd60e51b815260206004820152602660248201527f43616e6e6f742073657420636f646520647572696e67206f70706f6e656e742760448201527f73207475726e000000000000000000000000000000000000000000000000000060648201526084016102aa565b600990910155565b6005600783015462010000900460ff16600681111561197f5761197f613388565b146119dd5760405162461bcd60e51b815260206004820152602860248201527f43616e6e6f7420616476616e63652067616d65206e6f7420696e20706c6179696044820152676e6720737461746560c01b60648201526084016102aa565b6001600a830154600160901b900460ff1660048111156119ff576119ff613388565b14611a4c5760405162461bcd60e51b815260206004820152601a60248201527f5475726e206e6f7420696e206775657373696e6720737461746500000000000060448201526064016102aa565b33611a58836001611620565b6001600160a01b031614611aae5760405162461bcd60e51b815260206004820152601660248201527f4e6f7420796f7572206775657373696e67207475726e0000000000000000000060448201526064016102aa565b600a8201805460019190601190611ad0908490600160881b900460ff1661342c565b92506101000a81548160ff021916908360ff160217905550808260080160020160006101000a8154816fffffffffffffffffffffffffffffffff021916908360801c02179055505050565b33611b27826001611620565b6001600160a01b0316146110b95760405162461bcd60e51b815260206004820152602560248201527f4d6573736167652073656e646572206973206e6f742074686520636f6465627260448201527f65616b657200000000000000000000000000000000000000000000000000000060648201526084016102aa565b6001600160801b031981166000908152600c8301602052604081205460e881901b9060ff601082901c811691600881901c82169116808503611bec5760009450505050506113bb565b600a87015460801b600080888318611c026131de565b60005b60078d015460ff9081169082161015611ccd57611c23816008613445565b60ff16836fffffffffffffffffffffffffffffffff1916901b7effffffffffffffffffffffffffffffffffffffffffffffffffffffffffffff1916600060f81b03611c7a57611c7360018661342c565b9450611cc5565b600182611c88836008613445565b6001600160801b03198f1660ff919091161b60f81c60288110611cad57611cad6133de565b60200201818151611cbe919061342c565b60ff169052505b600101611c05565b5060005b60078d015460ff9081169082161015611d8757600082611cf2836008613445565b6001600160801b0319891660ff919091161b60f81c60288110611d1757611d176133de565b6020020151905060ff811615611d7e57611d31818661342c565b9450600183611d41846008613445565b6001600160801b03198a1660ff919091161b60f81c60288110611d6657611d666133de565b60200201818151611d779190613468565b60ff169052505b50600101611cd1565b508760ff168460ff16148015611da257508660ff168360ff16145b159c9b505050505050505050505050565b33611dbf826000611620565b6001600160a01b0316146110b95760405162461bcd60e51b815260206004820152602360248201527f4d6573736167652073656e646572206973206e6f742074686520636f64656d6160448201526235b2b960e91b60648201526084016102aa565b6000805b600785015460ff9081169082161015611e8c576007850154611e5190600190610100900460ff16613468565b60ff16611e5f826008613445565b6001600160801b0319861660ff919091161b60f81c1115611e84576000915050611eed565b600101611e25565b506040516001600160801b0319841660208201527fffffffff00000000000000000000000000000000000000000000000000000000831660308201526034016040516020818303038152906040528051906020012084600801600101541490505b9392505050565b6005600783015462010000900460ff166006811115611f1557611f15613388565b14611f735760405162461bcd60e51b815260206004820152602860248201527f43616e6e6f7420616476616e63652067616d65206e6f7420696e20706c6179696044820152676e6720737461746560c01b60648201526084016102aa565b6003600a830154600160901b900460ff166004811115611f9557611f95613388565b14611fec5760405162461bcd60e51b815260206004820152602160248201527f5475726e206e6f7420696e20676976696e675f666565646261636b20737461746044820152606560f81b60648201526084016102aa565b33611ff8836000611620565b6001600160a01b03161461205a5760405162461bcd60e51b815260206004820152602360248201527f4d6573736167652073656e646572206973206e6f742074686520636f64656d6160448201526235b2b960e91b60648201526084016102aa565b600a9190910180546001600160801b03191660809290921c919091179055565b61208481426133cb565b600b9092019190915550565b6005600782015462010000900460ff1660068111156120b1576120b1613388565b036120ca5760078101805462ff00001916620600001790555b3360009081526003820160205260408120819055600782015462010000900460ff1660068111156120fd576120fd613388565b0361211c576007810180546002919062ff000019166201000083611480565b6001600782015462010000900460ff16600681111561213d5761213d613388565b0361215c576007810180546002919062ff000019166201000083611480565b6002600782015462010000900460ff16600681111561217d5761217d613388565b0361219c576007810180546003919062ff000019166201000083611480565b6003600782015462010000900460ff1660068111156121bd576121bd613388565b1480156121cc57506005810154155b156121eb576007810180546002919062ff000019166201000083611480565b6003600782015462010000900460ff16600681111561220c5761220c613388565b14801561221c5750600581015415155b1561223b576007810180546004919062ff000019166201000083611480565b6004600782015462010000900460ff16600681111561225c5761225c613388565b036110b957600701805462ff0000191662050000179055565b600a810154600160881b900460ff166002820160006122948482611620565b6001600160a01b03166001600160a01b0316815260200190815260200160002060008282546122c391906133cb565b90915550506004810154600a820154600160881b900460ff908116911614801561230357506007810154600a820154600160801b900460ff908116911614155b156110b957806006015481600201600061231e846000611620565b6001600160a01b03166001600160a01b03168152602001908152602001600020600082825461234d91906133cb565b909155505050565b60006006600783015462010000900460ff16600681111561237857612378613388565b146123eb5760405162461bcd60e51b815260206004820152602d60248201527f43616e6e6f74206765742077696e6e6572207768696c652067616d652069732060448201527f6e6f7420636f6d706c657465640000000000000000000000000000000000000060648201526084016102aa565b60018201546001600160a01b0390811660009081526002840160205260408082205485549093168252902054111561242b5750546001600160a01b031690565b60018201546001600160a01b0390811660009081526002840160205260408082205485549093168252902054101561246e5750600101546001600160a01b031690565b506000919050565b919050565b80546124c95760405162461bcd60e51b815260206004820152600e60248201527f417272617920697320656d70747900000000000000000000000000000000000060448201526064016102aa565b60015b8154811015612524578181815481106124e7576124e76133de565b9060005260206000200154826001836125009190613481565b81548110612510576125106133de565b6000918252602090912001556001016124cc565b508080548061253557612535613494565b6001900381819060005260206000200160009055905550565b81546001600160a01b03166125bb5760405162461bcd60e51b815260206004820152602d60248201527f5b496e7465726e616c204572726f725d20537570706c6965642047616d65206460448201526c1bd95cc81b9bdd08195e1a5cdd609a1b60648201526084016102aa565b81546001600160a01b0380831691160361263d5760405162461bcd60e51b815260206004820152603860248201527f5b496e7465726e616c204572726f725d2043726561746f7220616e64206f707060448201527f6f6e656e742063616e6e6f74206265207468652073616d65000000000000000060648201526084016102aa565b6000600783015462010000900460ff16600681111561265e5761265e613388565b148061268857506001600783015462010000900460ff16600681111561268657612686613388565b145b6126fa5760405162461bcd60e51b815260206004820152603660248201527f5b496e7465726e616c204572726f725d20537570706c6965642047616d65206360448201527f616e6e6f7420616363657074206f70706f6e656e74730000000000000000000060648201526084016102aa565b6001600783015462010000900460ff16600681111561271b5761271b613388565b036127845760018201546001600160a01b0382811691161461277f5760405162461bcd60e51b815260206004820152601960248201527f4f70706f6e656e742063616e6e6f74206a6f696e2047616d650000000000000060448201526064016102aa565b6127a2565b6001820180546001600160a01b0319166001600160a01b0383161790555b610b5682612090565b600080600784015462010000900460ff1660068111156127cd576127cd613388565b141580156127fa57506001600784015462010000900460ff1660068111156127f7576127f7613388565b14155b6128465760405162461bcd60e51b815260206004820152601460248201527f47616d6520686173206e6f74207374617274656400000000000000000000000060448201526064016102aa565b6002600784015462010000900460ff16600681111561286757612867613388565b0361287d575081546001600160a01b03166128b3565b6003600784015462010000900460ff16600681111561289e5761289e613388565b036128b3575060018201546001600160a01b03165b6005600784015462010000900460ff1660068111156128d4576128d4613388565b146129215760405162461bcd60e51b815260206004820152601460248201527f47616d6520686173206e6f74207374617274656400000000000000000000000060448201526064016102aa565b61292c836001611620565b6001600160a01b03163303612a10576000600a840154600160901b900460ff16600481111561295d5761295d613388565b148061298857506002600a840154600160901b900460ff16600481111561298657612986613388565b145b806129b257506003600a840154600160901b900460ff1660048111156129b0576129b0613388565b145b6129fe5760405162461bcd60e51b815260206004820152601e60248201527f43616e6e6f742061636375736520647572696e67206f776e207068617365000060448201526064016102aa565b612a09836000611620565b9050612ab7565b6001600a840154600160901b900460ff166004811115612a3257612a32613388565b1480612a5d57506004600a840154600160901b900460ff166004811115612a5b57612a5b613388565b145b612aa95760405162461bcd60e51b815260206004820152601e60248201527f43616e6e6f742061636375736520647572696e67206f776e207068617365000060448201526064016102aa565b612ab4836001611620565b90505b600b8301544211612b305760405162461bcd60e51b815260206004820152602360248201527f43616e6e6f742061636375736520647572696e67207475726e206c6f636b207460448201527f696d65000000000000000000000000000000000000000000000000000000000060648201526084016102aa565b6001600160a01b038116600090815260038401602052604090205415612b985760405162461bcd60e51b815260206004820152600f60248201527f416c72656164792061636375736564000000000000000000000000000000000060448201526064016102aa565b612ba282426133cb565b6001600160a01b039091166000908152600390930160205260409092209190915550565b80546000906001600160a01b0316612c365760405162461bcd60e51b815260206004820152602d60248201527f5b496e7465726e616c204572726f725d20537570706c6965642047616d65206460448201526c1bd95cc81b9bdd08195e1a5cdd609a1b60648201526084016102aa565b6002600783015462010000900460ff166006811115612c5757612c57613388565b1480612c8157506003600783015462010000900460ff166006811115612c7f57612c7f613388565b145b612ccd5760405162461bcd60e51b815260206004820152601960248201527f47616d65206e6f7420696e207374616b696e672070686173650000000000000060448201526064016102aa565b60018201546001600160a01b0316331480612cf1575081546001600160a01b031633145b612d3d5760405162461bcd60e51b815260206004820152601760248201527f53656e646572206e6f742070617274206f662067616d6500000000000000000060448201526064016102aa565b81546001600160a01b031633148015612d7457506002600783015462010000900460ff166006811115612d7257612d72613388565b145b80612db4575060018201546001600160a01b031633148015612db457506003600783015462010000900460ff166006811115612db257612db2613388565b145b612e005760405162461bcd60e51b815260206004820152601f60248201527f4e6f74206d6573736167652073656e646572207374616b696e67207475726e0060448201526064016102aa565b60058201546002600784015462010000900460ff166006811115612e2657612e26613388565b03612e3657346005840155612e75565b6003600784015462010000900460ff166006811115612e5757612e57613388565b148015612e68575034836005015414155b15612e7557600060058401555b6113bb83612090565b6004600782015462010000900460ff166006811115612e9f57612e9f613388565b14612f125760405162461bcd60e51b815260206004820152603060248201527f5b496e7465726e616c204572726f725d20537570706c6965642067616d65206360448201527f616e6e6f7420626520737461727465640000000000000000000000000000000060648201526084016102aa565b600060024233604051602001612f4492919091825260601b6bffffffffffffffffffffffff1916602082015260340190565b6040516020818303038152906040528051906020012060001c612f6791906134aa565b905080600103612f8357600d8201805461ff0019166101001790555b50600701805462ff0000191662050000179055565b6000828015612fa45750815b15612fb1575060016113bb565b828015612fbc575081155b15612fc9575060006113bb565b82158015612fd45750815b15612fe1575060006113bb565b82158015612fed575081155b15612ffa575060016113bb565b50600092915050565b6005600782015462010000900460ff16600681111561302457613024613388565b146130825760405162461bcd60e51b815260206004820152602860248201527f43616e6e6f7420616476616e63652067616d65206e6f7420696e20706c6179696044820152676e6720737461746560c01b60648201526084016102aa565b6004810154600d82015460ff61010090920482169116106130e55760405162461bcd60e51b815260206004820152601e60248201527f43616e6e6f7420696e6372656d656e74207475726e732066757274686572000060448201526064016102aa565b600b81015442116131385760405162461bcd60e51b815260206004820152601a60248201527f5761697420666f72206c617374207475726e20746f206c6f636b00000000000060448201526064016102aa565b61314181612275565b600d81015460ff161561318a5760088101805463ffffffff19169055600060098201819055600a8201805472ffffffffffffffffffffffffffffffffffffff19169055600b8201555b600d81018054600191906000906131a590849060ff1661342c565b825460ff9182166101009390930a928302919092021990911617905550600a810180546000919060ff60901b1916600160901b83611480565b6040518061050001604052806028906020820280368337509192915050565b803560ff8116811461247657600080fd5b6000806000806080858703121561322457600080fd5b84356001600160a01b038116811461323b57600080fd5b9350613249602086016131fd565b9250613257604086016131fd565b9396929550929360600135925050565b6000806040838503121561327a57600080fd5b8235915060208301356001600160f01b03198116811461329957600080fd5b809150509250929050565b600080604083850312156132b757600080fd5b50508035926020909101359150565b80356001600160801b03198116811461247657600080fd5b600080604083850312156132f157600080fd5b82359150613301602084016132c6565b90509250929050565b60008060006060848603121561331f57600080fd5b8335925061332f602085016132c6565b915060408401357fffffffff000000000000000000000000000000000000000000000000000000008116811461336457600080fd5b809150509250925092565b60006020828403121561338157600080fd5b5035919050565b634e487b7160e01b600052602160045260246000fd5b634e487b7160e01b600052601160045260246000fd5b80820281158282048414176113bb576113bb61339e565b808201808211156113bb576113bb61339e565b634e487b7160e01b600052603260045260246000fd5b634e487b7160e01b600052601260045260246000fd5b600060ff83168061341d5761341d6133f4565b8060ff84160691505092915050565b60ff81811683821601908111156113bb576113bb61339e565b60ff81811683821602908116908181146134615761346161339e565b5092915050565b60ff82811682821603908111156113bb576113bb61339e565b818103818111156113bb576113bb61339e565b634e487b7160e01b600052603160045260246000fd5b6000826134b9576134b96133f4565b50069056fea26469706673582212206a9b6bd72224c286c35cb81e4d93a96c9eef383b07d3ed08aacebad25f038e5964736f6c63430008180033",
  "linkReferences": {},
  "deployedLinkReferences": {}
}